:100000000C9436030C9472140C944B140C945E03F1
:100010000C945E030C945E030C945E030C945E03DC
:100020000C945E030C945E030C945E030C945E03CC
:100030000C945E030C945E030C945E030C945E03BC
:100040000C9401140C945E030C94C80A0C94A20A3C
:100050000C945E030C945E030C945E030C945E039C
:100060000C9499140C945E03B708BA08BD08C00834
:10007000C308C608D008D308D608D908A509A80916
:10008000AB09AE09B109EF0CF40C9E0D720D6C0DAD
:10009000C30D120E120E120E120E120E120E120EB0
:1000A000120E120E040E0B0E2000756E6B6E6F7723
:1000B0006E20636F6D6D616E6400474D6F746520D7
:1000C000436F6E666967004170704B6579004170DF
:1000D000704555490044657645554900436F6D6D3F
:1000E000616E6420746F6F2073686F7274210020DA
:1000F00000533A00536C656570206D6F6465005362
:10010000657269616C20427566666572204F76651E
:1001100072666C6F77210057616B652075702100E6
:10012000000000006700CC00B80154039D07A02721
:10013000BE33E034C1332042C433A127BE33E1349F
:10014000C1332142C433293A2000525443207365FD
:10015000747570202D2074696D657220636F6E74E4
:10016000726F6C20287274635F743D005254432098
:100170007365747570202D20636F6E74726F6C20C0
:1001800073746174757320323A2000556E6B6E6F14
:10019000776E206576656E740045565F4C494E4B10
:1001A0005F414C4956450045565F4C494E4B5F44B4
:1001B0004541440045565F5258434F4D504C4554BD
:1001C000450045565F52455345540045565F4C4FD8
:1001D00053545F5453594E4300496D6D65646961D2
:1001E000746520616374696F6E202E2E2E004E653B
:1001F0007720636F6E66696775726174696F6E3AB6
:10020000200057726F6E67207061796C6F61642097
:100210006C656E6774682C20646F696E67206E6F02
:100220007468696E672100206279746573206F6657
:10023000207061796C6F61640052656365697665F1
:1002400064200052656365697665642061636B00B4
:1002500045565F5458434F4D504C45544500455604
:100260005F52454A4F494E5F4641494C454400451F
:10027000565F4A4F494E5F4641494C4544004556FA
:100280005F524655310045565F4A4F494E4544003E
:1002900045565F4A4F494E494E470045565F4245D5
:1002A00041434F4E5F545241434B45440045565FD6
:1002B000424541434F4E5F4D4953534544004556D7
:1002C0005F424541434F4E5F464F554E44004556B1
:1002D0005F5343414E5F54494D454F555400000014
:1002E0000000240027002A00002000536574746970
:1002F0006E672064656661756C7420636F6E6669F5
:100300006720746F3A0056697267696E20474D6FB7
:10031000746520636F6E66696720646574656374D5
:10032000656421002000436F6E66474D3A0000204F
:100330000053657474696E672064656661756C74DA
:10034000204170704B657920746F3A00566972676E
:10035000696E204170704B657920646574656374C3
:10036000656421000020004170704B65793A0000FF
:10037000200053657474696E672064656661756CEE
:10038000742041707045554920746F3A0056697267
:1003900067696E20417070455549206465746563D6
:1003A000746564210020004170704555493A002071
:1003B0000053657474696E672064656661756C745A
:1003C0002044657645554920746F3A005669726736
:1003D000696E20474D6F7465204465764555492008
:1003E000646574656374656421000020004465766B
:1003F0004555493A00200053657269616C3A0053D3
:100400004D414C4C0046572076657273696F6E3AC9
:100410002000474D6F7465207374617274757000AD
:100420004D435553523A2000537461727475702CC9
:1004300020726561647920666F72205541525420A4
:10044000636F6E66696775726174696F6E202E2EB8
:100450002E200000040000000200000001000080C7
:100460000000004000000020000000100000000517
:100470000000002020200E11140C0F12090C0F0692
:10048000090C030609000306140E0B080502000000
:100490000000000000000000000000010001000159
:1004A0000000C0400000000000250028002B0000D4
:1004B0000000080002010000030407000000000023
:1004C000000000FF0605040302010900FF202F20A1
:1004D0000054454D50204144433A2000202F200035
:1004E000424154204144433A20004D5F4120485648
:1004F0003A20004D5F44443A20004C3A2000494FD6
:100500003A200055533A20004F6C642064617461B6
:10051000005061636B657420717565756564004F8B
:10052000505F5458525850454E442C206E6F7420E2
:1005300073656E64696E670000000000230026008A
:100540002900040404040404040402020202020256
:100550000303030303030102040810204080010287
:1005600004081020010204081020637C777BF26BE2
:100570006FC53001672BFED7AB76CA82C97DFA59A9
:1005800047F0ADD4A2AF9CA472C0B7FD9326363F0E
:10059000F7CC34A5E5F171D8311504C723C31896FB
:1005A000059A071280E2EB27B27509832C1A1B6E9D
:1005B0005AA0523BD6B329E32F8453D100ED20FC3F
:1005C000B15B6ACBBE394A4C58CFD0EFAAFB434D42
:1005D000338545F9027F503C9FA851A3408F929DDF
:1005E00038F5BCB6DA2110FFF3D2CD0C13EC5F97CF
:1005F0004417C4A77E3D645D197360814FDC222AD5
:10060000908846EEB814DE5E0BDBE0323A0A49060B
:10061000245CC2D3AC629195E479E7C8376D8DD57F
:100620004EA96C56F4EA657AAE08BA78252E1CA657
:10063000B4C6E8DD741F4BBD8B8A703EB5664803B7
:10064000F60E613557B986C11D9EE1F8981169D93A
:100650008E949B1E87E9CE5528DF8CA1890DBFE6BD
:10066000426841992D0FB054BB163D2811241FBE7E
:10067000CFEFD8E0DEBFCDBF11E0A0E0B1E0E0E613
:10068000F4E502C005900D92AC3CB107D9F725E026
:10069000ACECB1E001C01D92A936B207E1F713E05E
:1006A000C6E3D3E004C02197FE010E94F328C533BE
:1006B000D107C9F70E940B250C942E2A0C94000038
:1006C0000C94E41883B78E7F83BFE89880E392E1AF
:1006D000909302018093010187E191E00C94FC2149
:1006E000CF92DF92EF92FF92CF93DF931F92CDB71D
:1006F000DEB789830E94E515F82E0E94E5152F2D9F
:1007000030E0322F2227A901482BCA0169816C01F0
:10071000853254EF950720F024E2C21A24EFD20A62
:10072000E12CF12C662361F00E949228292F30E001
:10073000A4E2B4EF0E94F928C60ED71EE81EF91EE7
:10074000C701B6010F90DF91CF91FF90EF90DF903E
:10075000CF900895CF92DF92EF92FF920F931F9365
:100760006B017C01842F0E947003DC01CB018C0D96
:100770009D1DAE1DBF1D2091C203222399F0009143
:10078000C3031091C4032091C5033091C603AC018B
:10079000BD01401B510B620B730B14161506160698
:1007A00017068CF48093C3039093C403A093C503EE
:1007B000B093C6038091CB039091CC03916090934A
:1007C000CC038093CB031F910F91FF90EF90DF90AC
:1007D000CF900895FC014083518362837383089511
:1007E000FC0122816181862F90E0A0E0B0E0DC0175
:1007F00099278827922B2381822B2081BC01CD0150
:10080000922B0895FC0121816281862F90E0A0E067
:10081000B0E0DC0199278827922B2081822B23814D
:10082000BC01CD01922B08950F931F9301970E9455
:100830000204272F382F492F5527A4E6B0E00E9445
:100840000F298B019C01005C154520473343013C77
:100850001F4C2A46310518F060E070E0CB011F9173
:100860000F910895F8948091F5018F5F8093F501C1
:1008700008958C01EB0180E391E00E94C5210E9464
:10088000D721C8010E94C521E091BE04F091BF04A8
:100890000190F081E02D6AE38EEB94E00995BE01B2
:1008A00080E090E04AE00E941B230E94D7218EEB5B
:1008B00094E00E94800A0E943204FFCF0E94A2139B
:1008C000DC01CB0124E0B695A795979587952A95ED
:1008D000D1F73091F101232F2B272870230F20937C
:1008E000F101BC01CD01922B08958F929F92AF929E
:1008F000BF92DF92EF92FF920F931F93CF93DF93FC
:100900008091F50181508093F5018111CAC07894DE
:1009100009E011E0C2EFD1E0EE24E394FC2E83E085
:10092000F80EF80181918F018F3F09F4B7C0B880AC
:100930000E940D132B2D30E02817390709F4AEC0A3
:10094000BE24B882BB2009F4A9C00E945E044B01FA
:100950005C0181E00E94B31687FF64C082E10E94BF
:10096000B31683FF0EC0F2E08F1A9108A108B108F8
:100970008092240390922503A0922603B09227032D
:1009800048C086FF43C0E0913203F0913303CF01AA
:1009900023E0969587952A95E1F7837061F4E770D7
:1009A000F0E0EE0FFF1FE05EFE4F85919491881AF4
:1009B000990AA108B1088092280390922903A09275
:1009C0002A03B0922B038DE10E94B31682FF02C06E
:1009D00082E201C083E10E94B31680934D0480E15E
:1009E0000E94B316682F8DE00E94CD1780914D04B0
:1009F0000E945C2389E10E94B316809331038AE14F
:100A00000E94B3168D538093300303C087FD10926C
:100A10004D046FEF81E10E94CD176FEF82E10E94DC
:100A2000CD1733C08EE30E94B316D82E8FE30E94F9
:100A3000B31683FF09C08092240390922503A092ED
:100A40002603B092270321C082FF14C0809228039E
:100A500090922903A0922A03B0922B0382E30E9472
:100A6000B31680934D040E945C23109231031092C0
:100A700030030BC0D2FE03C010924D0406C062E3E7
:100A800073E089E391E00E94390480E00E94DE1661
:100A900080913D0390913E030E94A6232196FC1273
:100AA00040CFDF91CF911F910F91FF90EF90DF909A
:100AB000BF90AF909F908F900895CF93DF9390E475
:100AC000EFE5F3E0DF011D929A95E9F790E2EFE997
:100AD000F3E0DF01292F1D922A95E9F7EFE3F3E018
:100AE000DF011D929A95E9F727E030E03093C003CB
:100AF0002093BF03811102C083E001C080E0CFE5F5
:100B0000D3E0AFE9B3E093E0980F2FE330E044E0A7
:100B1000849FF0011124E25DFE4F4591559165914E
:100B2000749149935993699379932D933D938F5F72
:100B30008913EDCF88EE93E09093400380933F03B9
:100B4000CEE0C09341030E94E5158F70809342036D
:100B500084E690E09093480380934703C093490351
:100B60000E94E5158F7080934A038AE090E090938D
:100B7000500380934F038BE1809351030E94E5154E
:100B80008F70809352030E945E04609353037093AE
:100B90005403809355039093560360934B037093D3
:100BA0004C0380934D0390934E03609343037093E3
:100BB00044038093450390934603DF91CF910895BA
:100BC000CF92DF92EF92FF926B017C010E945E0454
:100BD000C61AD70AE80AF90A89EEC81683E0D806C9
:100BE000E104F1046CF060E170E080E090E00E94CC
:100BF000C71388EEC81A83E0D80AE108F108ECCFE1
:100C00001C141D041E041F045CF484E0CC0CDD1CC9
:100C10008A95E1F7C601880F991F04970197F1F7AC
:100C2000FF90EF90DF90CF9008958EBD00000DB43F
:100C300007FEFDCF8EB50895811106C0209167058E
:100C4000909168052CBD9DBD682F8AE00C943613E9
:100C50000895CF93DF9300D000D0CDB7DEB7DB018E
:100C60001C969E012F5F3F4FF90144E0420F9D917A
:100C700091934E13FCCF99815A8159835B815A839A
:100C80005C815B839C83D9019C91E92FE295EF7095
:100C900050E1E59FF0011124E659FA4F9F70E90FEA
:100CA000F11DE491ED934A13EFCF91E05BE18130C8
:100CB00041F0E92FE078990FE03809F49527815049
:100CC000F6CF89819827998394E0F901DB0150815F
:100CD0008C9185278D9381934E13F9CF91506C5F42
:100CE0007F4F9111F2CF0F900F900F900F90DF91E7
:100CF000CF910895EEEAF4E0848195819483968102
:100D00009583978196838783808592859087828754
:100D10008185938591878387878596859787958534
:100D200096879485958784870895AC012EEA34E0F0
:100D300064E0620FDA01F90190E08D9170818727FC
:100D400080839F5F34969430C1F72F5F3F4F4C5F95
:100D50005F4F6213EFCF08959F92AF92BF92CF92F1
:100D6000DF92EF92FF920F931F93CF93DF93CDB754
:100D7000DEB761970FB6F894DEBF0FBECDBF7B0123
:100D80008A01282F30E0277F2230310589F0243076
:100D9000310529F0232B09F0ACC020E07BC030E105
:100DA000B32ECE0101966C0140E1A42EA80E90C096
:100DB00083FD11C083E792E00E94082280E1982E13
:100DC000DE0111966D0183E792E090E1B92EB80E35
:100DD00027E8A22E42C080E1E3E7F2E0DF011D92A6
:100DE0008A95E9F7EBCFFC012191CF013C912327B4
:100DF0002D934F5F7F01015011094031B1F1011571
:100E0000110589F7E42FF0E0ED58FD4F80818058FF
:100E1000808301E0D601E92D1D92EA95E9F7C6012C
:100E20000E94082219811078C6010E940223112312
:100E300019F088898A25888B01111CC0D601E3E747
:100E4000F2E08D91908189278193BE12FACF00E064
:100E500010E083E792E00E94082201151105A9F035
:100E6000C701A3E7B2E040E0BECF0115110589F745
:100E700000E0D0CF19811078C6010E94022311230F
:100E8000E9F288898A25888BD9CF83E792E00E948E
:100E9000F00332C0822F90E08017910750F58E0D3D
:100EA0009F1D298B0E9408222989205FF3CF0115FD
:100EB000110549F08D919081892781930150110985
:100EC0007F01AA12F4CF809182028F5F8093820209
:100ED0000115110571F0E3E7F2E0D6018B2D0190C9
:100EE0000D928A95E1F7C6010E940822F701D6010A
:100EF000E1CF60E070E0CB0161960FB6F894DEBF01
:100F00000FBECDBFDF91CF911F910F91FF90EF905A
:100F1000DF90CF90BF90AF909F9008950C9484285D
:100F20007F928F929F92AF92BF92CF92DF92EF9279
:100F3000FF920F931F93CF93DF9381EF90E00E9476
:100F4000DB21CCECD1E08091F00190E09E012C5CA3
:100F500031402817390764F48FEE90E00E94DB21BE
:100F6000699170E080E090E040E10E941B23EBCFAC
:100F70000E94D7218091F001823018F0C1E0712CDD
:100F800008C08CED90E00E94FC2172C0CD0F0E9441
:100F9000D7218091F001C81708F06AC0EC2FF0E06B
:100FA000E453FE4F8081833651F170F4813699F518
:100FB0008EEC90E00E94DB21D8E046E0E42E42E097
:100FC000F42E58E0752E2CC0843671F08B3619F54E
:100FD00087EC90E00E94DB21D0E12EE8E22E24E0B5
:100FE000F22E30E1732E1CC085ED90E00E94DB21D3
:100FF000D8E06EE0E62E62E0F62E712C11C08AEB8E
:1010000090E00E94DB21D8E088EDE82E82E0F82E07
:1010100090E2792E05C08AEA90E00E94DB21D0E0C0
:10102000CF5F0C2F10E004531E4F5701C12CD12C61
:10103000872C912CCD1608F0A9CF88EA90E00E9469
:10104000DB21F801608170E080E090E040E10E94E7
:101050001B23F80161918F01F50161935F01C601C6
:10106000880D991D0E948E07FFEFCF1ADF0AE2CF8D
:101070001092F001DF91CF911F910F91FF90EF90AF
:10108000DF90CF90BF90AF909F908F907F9008950A
:10109000CF938EEB94E00E94210A892B09F1C09135
:1010A000F001C432B0F48EEB94E00E94FF09EC2F03
:1010B000F0E0E453FE4F8083CF5FC093F0018C2FAC
:1010C00090E001972091CC0130E08217930709F757
:1010D00004C08FEF90E00E94FC210E949007D9CFBE
:1010E000CF91089584EF90E00E94FC218EEB94E074
:1010F0000E94800A10927A0014BE83B7817F8460B8
:1011000083BFF89482E693E09093020180930101FB
:10111000E9E6F0E080818C7F8083E89A83B7816084
:1011200083BF80E685BF80E485BF78948895089565
:10113000EF92FF920F931F93CF93DF93EC010E94E6
:101140005E0497FF03C00E94412403C04AE00E944E
:101150001B2385EC91E00E94C521FE013197EF3001
:10116000F10508F001C1EC5CFF4F0C94F3288EEC04
:1011700092E0FCC08EEB92E0F9C08DEA92E0F6C0FE
:101180008BE992E0F3C080E992E0F0C086E892E05B
:101190000E94FC2110923B0480E880933A04E8C04E
:1011A0008EE792E0E3C08FE692E0E0C08EE592E049
:1011B000DDC080E592E00E94FC2180914B0487FF16
:1011C00004C083E492E00E94FC2180914D048823B6
:1011D00009F444C089E392E00E94FC216AE070E0D7
:1011E00080914D040E94682487E292E00E94FC21D5
:1011F00080914D04883029F082E092E00E94FC2129
:101200002DC08EEE91E00E94DB2108ED12E0C0E0DF
:10121000D0E080914C04FE01EC5DFC4FE80FF11D25
:10122000E65DFE4F60817801F80161938F01CE0188
:1012300080960E948E07F701608170E080E090E068
:1012400040E10E941B232196C830D10511F70E946E
:10125000D721809105018B7F809305018091DB026E
:1012600080930001811106C089ED91E00E94FC216C
:101270000E94431E8091050182FD61C08CE691E0D1
:101280000E94DB2110922202109221021092AB02E6
:101290001092CD020E94C715D1E0D093AA02C1E5F9
:1012A000C093CC021092AB021092CD0281E090E08C
:1012B0000E94EC2081E190E00E94EC200E94F1204D
:1012C0006AE070E00E9468248AE491E00E94DB21D9
:1012D0006091000170E080E090E04AE00E941B23F2
:1012E00086E491E00E94DB211092220210922102FA
:1012F0001092AB021092CD020E94C715D093AA02A1
:10130000C093CC021092AB021092CD028EE090E01E
:101310000E94EC2083E890E00E94EC2060910001A4
:101320008BE595E00E94B9120E94F1206AE070E01E
:101330000E9468248091050184608093050180915A
:101340000501877F8093050113C08BEC91E00EC0EF
:1013500082EC91E00BC084EB91E008C087EA91E059
:1013600005C089E991E002C08BE891E00E94FC2170
:101370008091050183FF0E947208DF91CF911F9138
:101380000F91FF90EF900C94E418CF92DF92EF92C0
:10139000FF920F931F93CF93DF936C017A018B0120
:1013A000C0E0D0E0CE15DF0589F0D8016D918D0148
:1013B000D601ED91FC910190F081E02DC6010995D7
:1013C000892B11F47E0102C02196ECCFC701DF9179
:1013D000CF911F910F91FF90EF90DF90CF900895E4
:1013E000FC01538D448D252F30E0842F90E0821B2B
:1013F000930B541710F0CF96089501970895FC01B0
:10140000918D828D981761F0828DDF01A80FB11D3B
:101410005D968C91928D9F5F9F73928F90E008955F
:101420008FEF9FEF0895FC01918D828D981731F019
:10143000828DE80FF11D858D90E008958FEF9FEF6D
:101440000895FC01918D228D892F90E0805C9F4F43
:10145000821B91098F73992708958EEB94E00E9467
:10146000210A21E0892B09F420E0822F08950E94AF
:10147000132AEF92FF920F931F93CF93DF93EC0108
:1014800081E0888F9B8D8C8D981305C0E889F98940
:10149000808185FD24C0F62E0B8D10E00F5F1F4F5D
:1014A0000F731127E02E8C8DE8120CC00FB607FCCD
:1014B000FACFE889F989808185FFF5CFCE010E94B6
:1014C000EC12F1CF8B8DFE01E80FF11DE35AFF4FB7
:1014D000F0820B8FEA89FB898081806207C0EE89E8
:1014E000FF896083E889F98980818064808381E055
:1014F00090E0DF91CF911F910F91FF90EF900895B1
:10150000CF93DF93EC01888D8823C9F0EA89FB89AA
:10151000808185FD05C0A889B9898C9186FD0FC0A1
:101520000FB607FCF5CF808185FFF2CFA889B98976
:101530008C9185FFEDCFCE010E94EC12E7CFDF91B9
:10154000CF9108951F920F920FB60F9211242F93EF
:101550003F934F935F936F937F938F939F93AF933B
:10156000BF93EF93FF938EEB94E00E94EC12FF91F8
:10157000EF91BF91AF919F918F917F916F915F910B
:101580004F913F912F910F900FBE0F901F90189584
:101590001F920F920FB60F9211242F938F939F9348
:1015A000EF93FF93E091CE04F091CF048081E0911E
:1015B000D404F091D50482FD12C090818091D704AB
:1015C0008F5F8F732091D804821751F0E091D70478
:1015D000F0E0E254FB4F958F8093D70401C08081E7
:1015E000FF91EF919F918F912F910F900FBE0F90D0
:1015F0001F90189585E090E00C94980888E090E0A2
:101600000C9498082F923F924F925F926F927F9224
:101610008F929F92AF92BF92CF92DF92EF92FF9202
:101620000F931F93CF93DF93CDB7DEB727970FB6F6
:10163000F894DEBF0FBECDBF8091CB0387FD06C0FF
:1016400061E677E08EE791E00E94390400914D0455
:10165000011186C0E0914A04EE2391F1E83070F563
:10166000EF5FE0934A04F0E0E856FB4F94918091DD
:10167000CF03915048F0E82FF0E0ED53FB4FE49199
:10168000EF3FB9F38150F5CF60E80E949218609166
:1016900028037091290380912A0390912B0343E042
:1016A0000E94AA038091CB039091CC038F779093F3
:1016B000CC038093CB030E94E41804C380E601C0EE
:1016C00080E280934B0480913A04803819F08F5F58
:1016D00080933A0410924D0410924C048091CB03F5
:1016E0009091CC039C0127773093CC032093CB03BC
:1016F00020914B04277061F094FF0AC087779F7E8A
:101700009093CC038093CB038FE090E00E949808E5
:101710008AE090E00E94980880913A0489310CF4A4
:10172000D1C28091CF03E82FF0E0ED53FB4FE4915D
:10173000EF3F09F0815060E80E9492188CE080939E
:101740003A048091CB039091CC0380629061909396
:10175000CC038093CB038EE090E00E949808B2C245
:1017600090914E0410E00C30110544F410924D0499
:1017700080914B0480FF6ECF80E0B8C2292F237088
:101780002C832111F3CF392F307E303611F0303ACF
:1017900069F7409153044B838FE494E03F830E94A8
:1017A0000204AB01BC018091540420915504C09007
:1017B0002D04D0902E04E0902F04F09030043F814F
:1017C0004C155D056E057F0589F69B819F70A92EDE
:1017D000B12C450198E0890E911C1801A4E02A1A49
:1017E00031082814390414F28214930464F4F401C7
:1017F000E25BFB4F9081E92FF0E0FA83E983D501AA
:1018000019964D0104C0EFEFFFEFFA83E983409092
:10181000310450903204609033047090340490E0AE
:10182000922B84199509480E591E611C711C10E1F8
:10183000E3E7F2E0DF01212F1D922A95E9F789E421
:101840008093730281E0809378022092820289E77C
:1018500092E03F830E94EA03B301A2018DE792E088
:101860000E94EA03EDE0F4E0AEE9B4E001900D92ED
:101870001A95E1F7A1016EE474E082E00E94AC06E3
:101880006B017C01C101825B9B4F0E94F0033F8191
:10189000C616D706E806F90609F068CF809131042C
:1018A00090913204A0913304B09134044816590643
:1018B0006A067B06D8F484159505A605B7050CF4D1
:1018C00055CF0197A109B109481659066A067B064A
:1018D00009F04CCF80913904882309F447CF303A7E
:1018E00009F044CFEE24E394F12C16C0D301C201D9
:1018F0000196A11DB11D8093310490933204A093F1
:101900003304B0933404303A11F080E001C080E237
:1019100080933904E12CF12C80913904811103C0AA
:101920003B8134FF09C08091CB039091CC0380614F
:101930009093CC038093CB031092D10310923B047D
:1019400080913A04803819F084EF80933A04209112
:10195000320330913303822F877090E0FC01EE0F49
:10196000FF1FE80FF91FED58FB4F53E03695279501
:101970005A95E1F72370E20FF11DE4918091300355
:10198000082E000C990B8E1B9109835B9F4F97FDCE
:1019900006C08F3F910514F08EEF90E08C832C8170
:1019A00020933D041E821D82CC24CA94DC2C11E0BD
:1019B0008D819E818A159B050CF034C1ED81FE81DD
:1019C000EA5AFB4FE0818E2F90E0FC013297E13123
:1019D000F10508F027C1ED5BFF4F0C94F3284D8112
:1019E0005E814D5F5F4F1BC1ED81FE81E95AFB4F68
:1019F0000081ED81FE81E85AFB4F80812181ED81DC
:101A0000FE81E65AFB4F50815C83AD81BE81159605
:101A1000BE83AD83B7E8B0933E04952F907F09F065
:101A200053C190E0922B009709F44EC12091BF035F
:101A30003091C00320953095282339232115310595
:101A400009F042C1AFE5B3E0E1E0F0E0022E02C0F0
:101A5000EE0FFF1F0A94E2F7BF0168237923672B7B
:101A600071F04D915D916D917C911397452B462BB3
:101A7000472B29F4AF0140955095842395232F5F80
:101A80003F4F149620313105F9F69093C0038093AF
:101A9000BF03802F82958F70E82FF0E0EC53FB4F4F
:101AA000E491EF3F29F490913E049D7F90933E0492
:101AB00090913E049F77973061F49C819F70909342
:101AC000CD030F70E02FF0E0E857FB4F64910E94C8
:101AD000921810933B046CCF10933F04ED81FE816C
:101AE00031968FC0ED81FE81E95AFB4F00810F7066
:101AF0008D819E81885A9B4F0E941404E02FF0E054
:101B0000EC53FB4FE491EF3F51F0F2E8F0934904BE
:101B1000611571058105910509F0DAC00AC0B0E8C8
:101B2000B0934904672B682B692B19F021E82093A7
:101B300049044D815E814B5F5F4F71C0ED81FE8135
:101B4000E95AFB4F20812F3F49F48091CB039091BC
:101B5000CC0380649093CC038093CB032F702093AD
:101B6000C2030E945E046093C3037093C403809316
:101B7000C5039093C603109342048D819E81029603
:101B80009E838D8315CFED81FE81E95AFB4F008145
:101B90008D819E81885A9B4F0E941404AB01BC0129
:101BA000ED81FE81E55AFB4F208190E8909343043C
:101BB000411551056105710509F1822F82958F70DC
:101BC000AFE0B0E0A81BB109F60102C0F695E795B9
:101BD000AA95E2F72F70D60102C0AA0FBB1F2A9563
:101BE000E2F79D012E233F23802F0E944E21882360
:101BF00029F080914304836080934304ED81FE814A
:101C00003696FE83ED83D4CE2D813E812C5F3F4FEF
:101C10003E832D83CDCE4D815E814C5F5F4F5E83D1
:101C20004D83C6CEEF2831F5A981BA81AF3FEFEFE2
:101C3000BE0701F15101A818B9081A141B04D4F405
:101C40009401225B3B4F690140912D0450912E0479
:101C500060912F0470913004AB2B19F08DE194E06A
:101C600002C08DE094E0EE24E394F12C9301820114
:101C70000E944B1880914A04882359F080914B04AC
:101C80003B8135FD02C090E401C090E8892B809330
:101C90004B0480914B0449815A814F3F5F4F41F47F
:101CA000806280934B0480924C0410924D0416CDB8
:101CB000806180934B0480924C04822D881980931C
:101CC0004D040CCD81E012C0A6E8A0933E04E1CE05
:101CD000E3E8E0934904009344046093450470935F
:101CE0004604809347049093480423CF27960FB669
:101CF000F894DEBF0FBECDBFDF91CF911F910F9142
:101D0000FF90EF90DF90CF90BF90AF909F908F901B
:101D10007F906F905F904F903F902F9008958091AB
:101D20004D0481110BC010924B040E945E04645953
:101D300073428D4F9F4F42E00E94AA030C94020B06
:101D40004F925F926F927F928F929F92AF92BF92CB
:101D5000CF92DF92EF92FF920F931F93CF93DF9377
:101D60006B017C01EA0134E0239FF0011124ED5A5C
:101D7000FB4F85909590A590B49085E080933403B7
:101D80002091D2033091D3032115310509F447C0C6
:101D900040E050E0C701B6010E941A29722E032FBD
:101DA000142FB52FF62FE72F582E692EA0E00E9492
:101DB000EA2984F4215031094F4F5F4F6F4F7F4F15
:101DC0008F4F9F4F722E032F142FB52FF62FE72F13
:101DD000582E692E272D302F412F5B2F6F2F7E2FEE
:101DE000852D962D00E10E94CC2929013A01AAEF08
:101DF000B0E0A50194010E940F29641575058605C0
:101E0000970524F48FEF8093340309C0C301B20116
:101E1000A50194010E94D4282B5F20933403809164
:101E2000240390912503A0912603B0912703C80EA7
:101E3000D91EEA1EFB1ED501C40123E0880F991F9D
:101E4000AA1FBB1F2A95D1F7C80ED91EEA1EFB1E7A
:101E5000A0913403B0E0A50194010E940F29A701CD
:101E60009601261B370B480B590B20932803309300
:101E7000290340932A0350932B03CA01B9016D57DC
:101E8000710981099109AE01DF91CF911F910F91E5
:101E9000FF90EF90DF90CF90BF90AF909F908F908A
:101EA0007F906F905F904F900C94EB2380914D0446
:101EB00081110EC0A0913C04B0E0119624E234EFF1
:101EC0000E940829209144044DED51E10C94A00E8C
:101ED0000E94020B882371F30895CF92DF92EF9254
:101EE000FF9220913403273061F5C0902403D090F5
:101EF0002503E0902603F0902703DC01CB018C0D35
:101F00009D1DAE1DBF1D6C017D012AE0C21AD108C6
:101F1000E108F108C0922803D0922903E0922A0335
:101F2000F0922B0328E020933403BC01CD016758C5
:101F3000710981099109FF90EF90DF90CF900C9487
:101F4000EB2320913503FF90EF90DF90CF900C941E
:101F5000A00E20913C0430E0A4E2B4EF0E94F928E6
:101F60004CEA51E10C946D0F40EB51E164EB74ECE1
:101F700084E090E00C946D0FCF92DF92EF92FF928D
:101F80000F931F93CF93DF9380914B0410914D04D7
:101F9000813029F4111103C06CE975E006C080910D
:101FA000CB0387FD06C06DE975E08EE791E00E94E6
:101FB000390411118AC08091CB039091CC0382FD2A
:101FC00014C085FD03C062EA75E0EFCF8F75909372
:101FD000CC038093CB038091D1038A3018F48F5FB8
:101FE0008093D10389E090E07BC12091C1032F5FF2
:101FF000233019F02093C10302C01092C103209135
:102000004A042F5F20934A0420FD0EC02091CF0385
:10201000222361F0E22FF0E0ED53FB4FE491EF3F1C
:1020200009F021502093CF03C0E001C0C1E08F77B9
:10203000977F9093CC038093CB030E945E046B0147
:102040007C018091430390914403A0914503B0919A
:102050004603B701A601481B590B6A0B7B0B77FFA0
:1020600002C06C017D018FEF90E00090CF0302C0B1
:10207000959587950A94E2F70E947003DC01CB01E5
:1020800084599342AD4FBF4F8C0D9D1DAE1DBF1D9A
:102090008093240390932503A0932603B0932703F2
:1020A000CC2ED12CE12CF12CC11103C0C0E6D3E021
:1020B00002C0CEEFDAE00E945E046C0D7D1D8E1D25
:1020C0009F1DAE010E94EB230DC180914E04113182
:1020D00041F0113231F080914B0480FF6CCF80E0F1
:1020E00002C1837E8032B9F7C12FD0E00E94112354
:1020F000AE01415051096FE474E080E00E94AC06EB
:102100000E9411232497AE016EE474E08AE00E94DD
:10211000AC066B017C01CE01825B9B4F0E94F003F9
:10212000C616D706E806F906B1F685E594E00E94E2
:10213000020460932D0470932E0480932F049093D7
:10214000300482E594E00E940204DC01CB01BB274D
:102150008093C7039093C803A093C903B093CA03A5
:1021600080E00E945D05123108F046C080910B04AA
:1021700090910C04019720E1EDE0F4E0DF01322FB3
:102180001D923A95E9F731E030930D0436E0EFE423
:10219000F4E0AEE0B4E001900D923A95E1F780935F
:1021A000140490931504EDE0F4E0ADE1B4E0019087
:1021B0000D922A95E1F782E080931D040E9411237D
:1021C00040E150E06DE074E080E00E94AC060E94C7
:1021D000112340E150E06DE174E080E00E94AC0624
:1021E0008091CB039091CC039C0124723327232B45
:1021F000D9F466EF75E0D9CE0BE514E0C3E0C80171
:102200000E941404AB01BC01411551056105710523
:1022100029F020E030E08C2F0E944E21CF5F0D5F2F
:102220001F4FC83061F7A2CF85FF11C03091D10395
:102230002091CF03315048F0E22FF0E0ED53FB4FF7
:10224000E491EF3FB9F32150F5CF2093CF03897587
:102250009D7F9093CC038093CB0310924A041092FD
:1022600035041092360410923704109238041092FC
:1022700031041092320410923304109234041092FC
:10228000D10310923F0410923E0410923B0410922E
:1022900039041092430410924904109241041092A0
:1022A00042041092CD0384EF80933A0488E096EEC6
:1022B000A3EDB3E38093450490934604A0934704B1
:1022C000B0934804809159048F70809344048091A6
:1022D0005A04811101C081E080933C0486E090E0C3
:1022E0000E94980881E0DF91CF911F910F91FF909C
:1022F000EF90DF90CF90089580914D0481110AC036
:102300002091440445EE51E168ED78EB85E090E0E2
:102310000C94A00E0E94BC0F882391F30895809125
:102320004D04811102C010924B040C94BC0FE4E2E6
:10233000F3E021E020934B0426853785206837871A
:10234000268710924D04928F818F0E94320480E084
:102350000E944C170C94750486E59FE00C9497112D
:102360008CE791E10C949711A4E2B3E082E08093B2
:102370004B04E0914404F0E0EC53FB4FE491F0E0B7
:10238000EF77E0681F96FC93EE931E97409145040B
:1023900050914604609147047091480418964D93FB
:1023A0005D936D937C931B9710924D040E943204B1
:1023B00080E00E944C170C9475048FE89EE0909387
:1023C0003E0380933D030C94B4118FE891E1909308
:1023D0003E0380933D030C94B4110E94A618809193
:1023E0002D0490912E04A0912F04B0913004892BDC
:1023F0008A2B8B2B11F40E94E7178CE090E00C9451
:1024000098080E942D0A81110C9448080895833081
:1024100081F028F4813099F08230A1F0089587305E
:10242000A9F08830B9F08430D1F4809180008F7D9C
:1024300003C0809180008F7780938000089584B5D9
:102440008F7702C084B58F7D84BD08958091B000E0
:102450008F7703C08091B0008F7D8093B000089586
:10246000089585ED8093BC008091BC0084FDFCCF75
:102470001092A902089540914502262F30E0240FC2
:10248000311D21323105DCF42091A9022430C9F438
:10249000FC0180E090E0861758F4309145022191CC
:1024A000DC01AD5DBD4FA30FB11D2C930196F3CFA1
:1024B00080914502680F6093450280E0089581E0B5
:1024C000089582E00895089581E090E0309122021D
:1024D00020912102321710F480E090E091958195CF
:1024E000910908958091220290912102891730F478
:1024F0008F5F8093220280E090E008958FEF9FEF3E
:1025000008958091210290E020912202821B91097E
:102510000895CF92DF92EF92FF920F931F93CF9384
:10252000DF937C01262F972F8A018091AA028823AE
:1025300091F0C62FD72F6E01C40ED51ECC15DD0528
:1025400071F06991D701ED91FC910190F081E02D3E
:10255000C7010995F3CF642F822F0E943B12C80157
:10256000DF91CF911F910F91FF90EF90DF90CF906F
:102570000895CF93DF931F92CDB7DEB76983209183
:10258000AA022223D1F02091CD02203240F021E096
:1025900030E0FC013383228380E090E015C080911D
:1025A000AB02E82FF0E0E455FD4F998190838F5FF7
:1025B0008093AB028093CD0205C061E0CE0101960D
:1025C0000E943B1281E090E00F90DF91CF9108953F
:1025D000089580E090E00895FC01848DDF01A80F4C
:1025E000B11DA35ABF4F2C91848D90E001968F733B
:1025F0009927848FA689B7892C93A089B1898C915A
:1026000080648C93938D848D981306C00288F3891F
:10261000E02D80818F7D80830895CF93DF93282FD5
:1026200030E0F901E155FB4F8491F901EA5AFA4F84
:10263000D491F901EE5BFA4FC491CC2391F0811152
:102640000E940712EC2FF0E0EE0FFF1FE85CFA4F3C
:10265000A591B491EC91ED2381E090E021F480E02C
:1026600002C080E090E0DF91CF9108951F93CF9357
:10267000DF93282F30E0F901E155FB4F8491F901F8
:10268000EA5AFA4FD491F901EE5BFA4FC491CC2388
:10269000C9F0162F81110E940712EC2FF0E0EE0F07
:1026A000FF1FEB55FB4FA591B4918FB7F894111113
:1026B00005C09C91ED2FE095E92302C0EC91ED2B34
:1026C000EC938FBFDF91CF911F910895CF93DF934C
:1026D00090E0FC01EA5AFA4F2491FC01EE5BFA4FBC
:1026E0008491882361F190E0880F991FFC01E252E8
:1026F000FD4FC591D491FC01EB55FB4FA591B491D1
:10270000611109C09FB7F89488812095822388833E
:10271000EC912E230BC0623061F49FB7F89438819E
:10272000822F809583238883EC912E2B2C939FBF3F
:1027300006C08FB7F894E8812E2B28838FBFDF91D6
:10274000CF9108953FB7F89480916F0290917002F5
:10275000A0917102B091720226B5A89B05C02F3FCF
:1027600019F00196A11DB11D3FBFBA2FA92F982FB7
:102770008827820F911DA11DB11DBC01CD0143E031
:10278000660F771F881F991F4A95D1F708958F927A
:102790009F92AF92BF92CF92DF92EF92FF926B0126
:1027A0007C010E94A2134B015C01C114D104E1041D
:1027B000F104F1F00E94A213DC01CB018819990900
:1027C000AA09BB09883E9340A105B10570F321E039
:1027D000C21AD108E108F10888EE880E83E0981E3D
:1027E000A11CB11CC114D104E104F10419F7DDCF1F
:1027F000FF90EF90DF90CF90BF90AF909F908F9021
:1028000008951F920F920FB60F9211242F933F93AA
:102810008F939F93AF93BF9380916B0290916C02C3
:10282000A0916D02B0916E0230916A0226E0230FF2
:102830002D3720F40296A11DB11D05C029E8230FF4
:102840000396A11DB11D20936A0280936B029093A1
:102850006C02A0936D02B0936E0280916F02909112
:102860007002A0917102B09172020196A11DB11D7A
:1028700080936F0290937002A0937102B0937202E2
:10288000BF91AF919F918F913F912F910F900FBE6C
:102890000F901F9018951F920F920FB60F92112450
:1028A0002F933F934F935F936F937F938F939F9358
:1028B000AF93BF93EF93FF93E0910301F091040175
:1028C0000995FF91EF91BF91AF919F918F917F916A
:1028D0006F915F914F913F912F910F900FBE0F908D
:1028E0001F9018951F920F920FB60F9211242F93DD
:1028F0003F934F935F936F937F938F939F93AF9388
:10290000BF93EF93FF93E0910101F09102010995CC
:10291000FF91EF91BF91AF919F918F917F916F91B7
:102920005F914F913F912F910F900FBE0F901F908D
:1029300018951F920F920FB60F9211242F933F9369
:102940004F935F936F937F938F939F93AF93BF93B7
:10295000EF93FF938091B900887F803609F49CC083
:1029600068F5883209F45BC090F4803109F454C0F2
:1029700038F4882309F4F6C0883009F44DC0F6C055
:10298000883109F44CC0803209F45DC0EFC0803456
:1029900009F468C048F4803309F455C0883309F05D
:1029A000E5C08093A702D8C0803509F44FC08835B0
:1029B00009F45DC0883409F0D9C0D6C0883909F45B
:1029C000C7C0A8F4883709F467C038F4883609F41A
:1029D00063C0803709F460C0C9C0883809F4B8C042
:1029E000803909F45FC0803809F0C0C05BC0803B0B
:1029F00009F486C038F4803A09F466C0883A09F4CC
:102A00007FC0B4C0803C09F4A7C0883C09F4A4C0CE
:102A1000883B09F48AC0AAC08091840210C09091BA
:102A2000A6028091A502981770F5E091A60281E0B8
:102A30008E0F8093A602F0E0EB57FD4F80818093CC
:102A4000BB0085EC86C08093A7028EC0E091A602F1
:102A500081E08E0F8093A6028091BB00F0E0EB57DF
:102A6000FD4F80839091A6028091A5026EC0E091F7
:102A7000A60281E08E0F8093A6028091BB00F0E059
:102A8000EB57FD4F80838091A80281116DC081E0DA
:102A90008093830284EA61C083E08093A90210924C
:102AA0006902CFCF80916902803208F051C0E09175
:102AB000690281E08E0F809369028091BB00F0E093
:102AC000E75BFD4F8083BDCF85EC8093BC00109207
:102AD000A90280916902803230F4E0916902F0E04D
:102AE000E75BFD4F10826091690270E0E091470260
:102AF000F091480289E492E009951092690236C08B
:102B000084E08093A9021092460210924502E0915F
:102B10004302F0914402099580914502811105C05C
:102B200081E08093450210922302E091460281E009
:102B30008E0F80934602F0E0ED5DFD4F8081809323
:102B4000BB009091460280914502981708F479CF16
:102B500085E88093BC000AC085EC8093BC0010928D
:102B6000A90204C01092A7020E943112FF91EF91B6
:102B7000BF91AF919F918F917F916F915F914F9195
:102B80003F912F910F900FBE0F901F9018951092AC
:102B9000A90281E08093A8021092830261E082E1A1
:102BA0000E94361361E083E10E943613E9EBF0E006
:102BB00080818E7F808380818D7F808380E280937F
:102BC000B80085E48093BC0008959091F6019111BE
:102BD00006C06FED72E089E391E00E943904903104
:102BE00041F440E150E066EF71E080E00E94AC0605
:102BF00090E0E92FF0E0EA50FE4F80819F5F9093D4
:102C0000F6010895AF92BF92CF92DF92EF92FF92BA
:102C10000F931F93CF93DF9380912C0390912D03FB
:102C2000A0912E03B0912F039C01AD0160E070E0F4
:102C300080E090E003E10E94B329A12CE8E4BE2EDD
:102C4000F8EECF2EDD24D394E12CF12C00E010E03F
:102C50000E945629C22FB32E6A017B01182FD92F4B
:102C600000E10E94CE29622F86E00E94CD172C2F12
:102C70003B2DA601B701812F9D2F08E00E94CE2990
:102C8000622F87E00E94CD176C2F88E0DF91CF91F3
:102C90001F910F91FF90EF90DF90CF90BF90AF907A
:102CA0000C94CD17CF93DF9360913203709133036F
:102CB000D62FD770CB0153E0969587955A95E1F7BB
:102CC0008370813049F050F0823051F068E471E057
:102CD00089E391E00E943904C0E803C0C0E701C065
:102CE000C0E9CB0145E0969587954A95E1F7837059
:102CF000823041F0833041F0813011F0C26005C074
:102D0000C46003C0C66001C0C860672F7727611523
:102D1000710521F0C16082E20E94CD176C2F8DE118
:102D20000E94CD176D2F6295607F605A80913203AB
:102D300087FF64608EE10E94CD17D550D23068F4D1
:102D4000809132039091330323E0969587952A95DD
:102D5000E1F7837011F46CE001C064E086E2DF917A
:102D6000CF910C94CD17CF93C82F80E00E941C0602
:102D70008C2F8F770E9415061EBC00000DB407FE35
:102D8000FDCFCEB581E00E941C068C2FCF91089517
:102D900060913603613124F462301CF462E001C0BA
:102DA0006FE06F70606889E00E94CD178AE50E942D
:102DB000B316682F64608AE50C94CD17CF93C82FA3
:102DC00081E00E94B316887F682F6C2B81E0CF9141
:102DD0000C94CD17CF93C82F68E881E00E94CD17DF
:102DE00081E00E94B31687FD06C061E272E089E3CC
:102DF00091E00E94390481E00E94DE16C23049F45D
:102E00006AE08DE10E94CD1760E78EE10E94CD1748
:102E100004C00E9452160E94021661E28CE00E94D9
:102E2000CD1760E483E20E94CD1783E30E94B316BE
:102E3000682F606483E30E94CD17609134038FE1B3
:102E40000E94CD1764E389E30E94CD1760EC80E413
:102E50000E94CD176FEF82E10E94CD17EC2FF0E0BA
:102E6000EE55FB4F6491609581E10E94CD1780E0A3
:102E70000E942806C1110CC060912803709129039B
:102E800080912A0390912B030E94E00586E001C007
:102E900085E0CF910C94DE16CF93C82F81E00E947D
:102EA000B316877019F064E972E009C0909132039B
:102EB000977009F06EC0CC2331F062E672E089E3CE
:102EC00091E00E94390468E081E00E94CD1781E022
:102ED0000E94B31687FF03C066E672E0F0CF81E080
:102EE0000E94DE160E94021661E28CE00E94CD175D
:102EF0006EE18DE00E94CD176BE082E10E94CD175C
:102F000062E183E10E94CD176AEA8FE10E94CD174A
:102F100062E187E20E94CD1768ED80E30E94CD1741
:102F200060E481E30E94CD1761EC88E20E94CD1736
:102F300064E989E20E94CD1761EC8AE20E94CD1714
:102F40006FEF81E20E94CD1762E082E00E94CD1710
:102F500060E883E00E94CD1761E084E00E94CD1715
:102F600069E985E00E94CD1768E380E40E94CD17EF
:102F700080E00E94280660912803709129038091C7
:102F80002A0390912B030E94E00585E0CF910C94D9
:102F9000DE168C2FCF910C94EA161F93CF93DF93FC
:102FA0001F92CDB7DEB7182F80E069830E941C0600
:102FB000812F80680E9415066981862F0E94150660
:102FC00081E00F90DF91CF911F910C941C06CF925E
:102FD000DF92EF92FF928091CB039091CC039C0102
:102FE00020793327232B19F069E377E024C010926E
:102FF000C2038E7D977E9093CC038093CB03109277
:103000004A041092D1030E94E51563E00E949228C1
:103010009093C1038EE08093CE0385E08093CF032D
:1030200081E00E945D058091CB039091CC0393FFDA
:1030300006C06AEB72E08EE791E00E943904C0900E
:103040004303D0904403E0904503F090460388E0AA
:103050000E947003DC01CB018C0D9D1DAE1DBF1DB8
:103060008093240390932503A0932603B093270312
:103070008091CB039091CC0384609093CC03809398
:10308000CB038AEF9AE00E94A62381E0FF90EF90A5
:10309000DF90CF9008954F925F926F927F92AF92A0
:1030A000BF92CF92DF92EF92FF920F931F93CF9335
:1030B000DF93EC012801390180E1E3E7F2E0DF0171
:1030C0001D928A95E9F781E08093820280937302D2
:1030D000EF2809F480E08093780289E792E00E946B
:1030E000EA03B301A2018DE792E00E94EA0390E1B6
:1030F000FE01AEE9B4E001900D929A95E1F7A501C9
:10310000B60184E0DF91CF911F910F91FF90EF9076
:10311000DF90CF90BF90AF907F906F905F904F9077
:103120000C94AC06603811F06093CE039091CF03FD
:10313000981759F08093CF038091CB039091CC03E3
:1031400098609093CC038093CB030895CF930E9413
:10315000320480E00E94DE160E9475040E947723EC
:103160008AE691E0E4E2F3E0DF019C011D92215048
:103170003040E1F70E94E515C82F0E94E5152C2F7D
:1031800030E0322F2227282B30930C0420930B049D
:103190001092CC031092CB031092D00380E880935E
:1031A00040041092440488E096EEA3EDB3E38093CC
:1031B000450490934604A0934704B093480481E0EB
:1031C00080933C04CF9108952F923F924F925F924B
:1031D0006F927F928F929F92AF92BF92CF92DF9227
:1031E000EF92FF920F931F93CF93DF93CDB7DEB78C
:1031F0002A970FB6F894DEBF0FBECDBF8091CB03E8
:103200009091CC039C01217C3327232B09F022C50C
:1032100040912D0450912E0460912F047091300440
:10322000452B462B472BE1F482FD1AC02A960FB698
:10323000F894DEBF0FBECDBFDF91CF911F910F91EC
:10324000FF90EF90DF90CF90BF90AF909F908F90C6
:103250007F906F905F904F903F902F900C94E71766
:103260000E945E042B013C018091CB039091CC0322
:103270009C012C733327232B09F4C5C493FFBAC0D8
:103280008090BF039090C0039A8289822091CF03DF
:103290002F7041E050E05A0102C0AA0CBB1C2A95D5
:1032A000E2F7BC82AB82AFE0A30192013E52464BF3
:1032B00054492D833E834F83588701E010E0CD8031
:1032C000DE80EF80F884E4E2F3E020E030E0B0E07C
:1032D0002A2E312CB101022E02C0759567950A94F1
:1032E000E2F760FF12C0478D50A161A172A14601B3
:1032F0005701841A950AA60AB70A181419041A0461
:103300001B041CF4B22F6A017B012F5F3F4F3896DC
:1033100024303105F9F62B2E312CA101E3E0440FC6
:10332000551FEA95E1F75A874987FA01EC5DFC4F92
:10333000468D20E18B2E912CA12CB12C31E0340F45
:10334000303110F031EF340F432F50E0B801032E2D
:1033500002C0660F771F0A94E2F7E981FA816E23B3
:103360007F23672B49F1FA01EE0FFF1FE156FC4F57
:1033700060817181EB81FC816E237F23672BE1F0FB
:10338000440F551F440F551FFA01EC5DFC4F43AD30
:1033900054AD65AD76AD4370552766277727841603
:1033A0009506A606B70641F4E985FA85EC5DFC4F63
:1033B000368F3093C1030DC0215011F0432FBECF83
:1033C000980101C0220F2A94EAF72095A22309F060
:1033D00076CFB701A601C0922403D0922503E092D4
:1033E0002603F09227039C01377F3093CC03209370
:1033F000CB0308C04091240350912503609126031C
:10340000709127032091C203211106C02091CB03A4
:103410003091CC0330FF12C00091C3031091C4035C
:103420002091C5033091C6036A017B01C01AD10AFD
:10343000E20AF30AF7FE02C0B901A8018A019B0162
:1034400004191509260937090D57110921093109F0
:1034500037FFCBC32090CF0384729927892B09F4BF
:1034600052C08091CB0385FF0FC08091D103815062
:1034700048F0E22DF0E0ED53FB4FE491EF3FB9F35C
:103480002A94F5CF80EC01C080E080934E04AEE03A
:10349000B2E0EFE4F4E088E08E0F9E9191938E13FA
:1034A000FCCFA6E1B2E0E7E5F4E088E08E0F9E9164
:1034B00091938E13FCCF90910B0480910C04909308
:1034C0005F04809360040E94112343E150E06EE4A6
:1034D00074E08AE00E94AC06609364047093630415
:1034E000809362049093610487E180934D048091FE
:1034F0000B0490910C04019690930C0480930B04A0
:1035000084EB9FE09CC18091310490913204A091A2
:103510003304B091340480389F4FAF4FBF4FE0F079
:103520008DEE91E12A960FB6F894DEBF0FBECDBFA7
:10353000DF91CF911F910F91FF90EF90DF90CF908F
:10354000BF90AF909F908F907F906F905F904F90C3
:103550003F902F900C94A62360914A0461110DC0F6
:103560008091350490913604A0913704B0913804CD
:103570008F3F9F4FAF4FBF4F99F28091CB039091F8
:10358000CC038871992751E0409719F450E040E04E
:1035900002C04091D60380914204882341F084E028
:1035A000809356041092420489E090E002C088E0C3
:1035B00090E070914904772371F09C012C5D3C4FA1
:1035C000F901E65DFE4FA5E0A0833196737070832C
:1035D00002961092490420913F04222391F09C010D
:1035E0002C5D3C4FF901E65DFE4F76E0708331962D
:1035F0007FEF7083319620913D04208303961092D3
:103600003F0470913E04772371F09C012C5D3C4F88
:10361000F901E65DFE4FA3E0A083319677707083D9
:10362000029610923E0420913B04222339F020910F
:103630003A0427FD10923A0410923B04709143041F
:10364000772371F09C012C5D3C4FF901E65DFE4F44
:10365000A7E0A083319673707083029610924304A2
:10366000552319F025E0240F01C024E0E82F322E65
:10367000380E30E4331510F0752F04C024E0322EDC
:10368000380E70E020E420934E04309140045091B5
:103690003904532B30913A043095232F221F2227CF
:1036A000221F2295220F220F207C38EF3E0F352B50
:1036B000232B20935304E0912D0450912E0430913C
:1036C0002F0420913004E0934F0450935004309322
:1036D000510420935204611114C0009135041091DB
:1036E000360420913704309138040F5F1F4F2F4F5D
:1036F0003F4F0093350410933604209337043093E2
:10370000380420913504309136042150310920933A
:1037100054043093550410923904772309F442C0BD
:103720002091D503222341F020E820934E0461111B
:1037300003C021E020934A04FC01E25BFB4F20918F
:10374000D4032083BC01615B7B4F6B01A42EB12CA1
:10375000A50167ED73E0C6010E94252A009135049A
:1037600010913604209137043091380440912D0493
:1037700050912E0460912F04709130048091D403F5
:10378000882319F08DE194E002C08DE094E0A1144B
:10379000B10441F00150110921093109E12CF12C4A
:1037A0000E944B18E32DF0E08F0104501109809026
:1037B000350490903604A0903704B090380471E03E
:1037C000871A9108A108B10840912D0450912E0448
:1037D00060912F047091300490E1F92EE3E7F2E05C
:1037E000DF012F2D1D922A95E9F789E4809373025A
:1037F000109278020093820289E792E00E94EA0325
:10380000B501A4018DE792E00E94EA03EDE0F4E047
:10381000AEE9B4E001900D92FA94E1F7A8016EE4EC
:1038200074E082E00E94AC06F801E25BFB4F638328
:1038300072838183908330924D0489EA9FE0909354
:103840003E0380933D03E22DF0E0EC53FB4F849167
:103850008F79E091D00330E2E39FF0011124E82B4F
:10386000F0933303E0933203209235038091CB032E
:103870009091CC038F76967F806898609093CC036C
:103880008093CB03A091C10344E0A49FD0011124F5
:10389000AC5DBC4FDB96CD90DD90ED90FC90DE975B
:1038A000A0914D043E2F3770B0E079F41B9683E071
:1038B000AA0FBB1F8A95E1F724E234EF0E94082982
:1038C00020E533EC40E050E086C0632F660F660FC2
:1038D000685E353010F490E001C098E003E0AA0F74
:1038E000BB1F0A95E1F7A61BB1095C96E7FD03C073
:1038F00040E150E002C040E050E0A40FB51F4F2F60
:103900005527452B19F440E050E002C044E150E057
:10391000A41BB50B1A161B06DCF4691B70E0A60F7E
:10392000B71FCD0101970E949E28AF01A5E05695D3
:103930004795AA95E1F7437050E04B5F5F4F649F56
:10394000C001659F900D749F900D1124089602C0D0
:1039500088E090E0880F991F880F991FC1963F5FFC
:1039600063E0F695E7956A95E1F7E3703E1B353025
:1039700050F03450E9E0FDE302C0F595E7953A9543
:10398000E2F734E002C0E9E0FDE3092E000CAA0BE7
:10399000BB0B4C015D0104C0880C991CAA1CBB1C0C
:1039A0003A95D2F7A5019401A4E2B4EF0E940F2941
:1039B0009F01F7FF02C02F5F3F4F35952795890183
:1039C000330F220B330B600F711F821F931F9F0158
:1039D000FF0F440B550B0E94D42849015A01D7010F
:1039E000C60183709927AA27BB272CEFC222C09259
:1039F0002C03D0922D03E0922E03F0922F0323E0AC
:103A0000880F991F2A95E1F7FC01EC5DFC4F858D2D
:103A100080933603A38DB48DA50194010E940F29D4
:103A2000DC01CB01840D951DA61DB71D878F90A3CA
:103A3000A1A3B2A38091C2038823A9F0B501A40178
:103A400004C0440F551F661F771F8A95D2F7440E96
:103A5000551E661E771E4092C3035092C4036092A7
:103A6000C5037092C6030E94320481E00E94B3161F
:103A7000877019F06BE072E010C08091320387709C
:103A800009F054C060E181E00E94CD1781E00E94FE
:103A9000B316803131F06DEA71E089E391E00E9464
:103AA000390481E00E94DE1662E082E00E94CD17B8
:103AB00060E883E00E94CD1761E084E00E94CD17AA
:103AC00069E985E00E94CD1760E085E20E94CD178C
:103AD00065E086E20E94CD1762E187E20E94CD1781
:103AE00060ED80E30E94CD1760E481E30E94CD1772
:103AF00061EC88E20E94CD1764E989E20E94CD174B
:103B000061EC8AE20E94CD170E9402160E94C8163C
:103B100064E380E40E94CD1760914D046F5F82E3FF
:103B20000E94CD1760914D0480E039C068E881E0C3
:103B30000E94CD1781E00E94B31687FD03C069ED96
:103B400071E0ABCF81E00E94DE160E9452160E9407
:103B500002168AE00E94B316807F682F68608AE0B0
:103B60000E94CD170E94C81664E389E30E94CD1716
:103B700060EF80E40E94CD176FEF82E10E94CD17C5
:103B800067EF81E10E94CD1760E08EE00E94CD17C3
:103B900060E08DE00E94CD1760914D0482E20E94AA
:103BA000CD1780914D040E94CA2381E00E9428060F
:103BB00083E00E94DE162A960FB6F894DEBF0FBE91
:103BC000CDBFDF91CF911F910F91FF90EF90DF90CC
:103BD000CF90BF90AF909F908F907F906F905F90AD
:103BE0004F903F902F900C9475048091CB0381FFF0
:103BF0000FC0411551056105710551F441E050E0D8
:103C000060E070E005C081FF25C040E050E0BA01EF
:103C1000CB01BA016D5771098109910940E653E062
:103C20002A960FB6F894DEBF0FBECDBFDF91CF91BD
:103C30001F910F91FF90EF90DF90CF90BF90AF90CA
:103C40009F908F907F906F905F904F903F902F90BC
:103C50000C94EB232A960FB6F894DEBF0FBECDBFAF
:103C6000DF91CF911F910F91FF90EF90DF90CF9058
:103C7000BF90AF909F908F907F906F905F904F908C
:103C80003F902F900895BF92CF92DF92EF92FF92D4
:103C90000F931F93CF93DF9300D000D0CDB7DEB743
:103CA0008091CB0387FF03C08FE195E073C28091C1
:103CB000D8028093000380FF4FC061E086E00E943D
:103CC000661361E085E00E94661360E084E00E9474
:103CD000661361E086E00E94361368EC70E080E0D5
:103CE00090E00E94C71360E085E00E94361386E0F2
:103CF00090E00197F1F761E085E00E94361380E1E2
:103D000090E00197F1F760E085E00E94361361E0F2
:103D100084E00E9487246B017C0160E086E00E94C1
:103D20003613C114D10421E0E206F10418F0C12CCD
:103D3000D12C760183E095E00E94DB214AE0C701A7
:103D4000B6010E941B230E94D721D0920203C09289
:103D50000103B3E0CB2E02C0CC24C3948091D802DF
:103D600081FF29C060E085E00E94661361E086E083
:103D70000E94661361E086E00E94361362E370E001
:103D800080E090E00E94C71385E00E940D13182F79
:103D900060E086E00E9436138EEF94E00E94DB2103
:103DA00060E170E0812F0E946824EC2DF0E0E0508B
:103DB000FD4F1083C3948091D80282FF56C0EC2C33
:103DC000F12C61E081E10E94661361E081E10E94D3
:103DD000361364EF71E080E090E00E94C71382EC3C
:103DE00091E00E94C521F4E0BF2E00E010E0A1E4C4
:103DF000DA2ED0927C0080917A00806480937A00E1
:103E000080917A0086FDFCCF809178002091790026
:103E100090E0922B080F191FB80180E090E04AE073
:103E20000E941B2386EC91E00E94C52164E670E0AD
:103E300080E090E00E94C713BA94B110DACF1695D3
:103E400007951695079560E081E10E9436138AEF89
:103E500094E00E94DB216AE070E0802F0E946824D9
:103E6000F701E050FD4F0083C3948091D80283FF97
:103E70003EC062E08FE00E94661362E370E080E083
:103E800090E00E94C71361E08EE00E94661361E03B
:103E90008EE00E94361368EC70E080E090E00E94B3
:103EA000C71360E08FE00E948724162F60E08EE049
:103EB0000E94361383EF94E00E94DB216AE070E0F9
:103EC000812F0E94682462E370E080E090E00E940D
:103ED000C71361E08FE00E94661360E08FE00E94EC
:103EE0003613EC2DF0E0E050FD4F1083C394809129
:103EF000D80284FF52C08C2D90E0FC01E050FD4FB1
:103F00007F01D0907C0080917A00806880937A0055
:103F100081E480937C0061E08EE00E94661360E0A3
:103F20008FE00E94661361E08EE00E94361368EC19
:103F300070E080E090E00E94C71300E010E080E0B5
:103F400090917A00906490937A0090917A0096FD17
:103F5000FCCF882331F02091780030917900020F56
:103F6000131F8F5F833061F760E08EE00E9436138D
:103F700016950795D0927C008AEE94E00E94DB2192
:103F8000B80180E090E04AE00E941B230E94D72104
:103F9000F70111830083C394C3940C2D10E0D090DB
:103FA0007C0080917A00806880937A008EE4809310
:103FB0007C0064E170E080E090E00E94C71320E0A4
:103FC00030E080E090917A00906490937A00909134
:103FD0007A0096FDFCCF882331F040917800509113
:103FE0007900240F351F8F5F833061F73695279551
:103FF00040E050E064EB7BE281E190E00E94D42855
:10400000790165E0F694E7946A95E1F7D0927C0037
:1040100080EE94E029833A834B835C830E94DB210A
:1040200029813A814B815C81CA01B901882799278E
:104030004AE00E941B238CED94E00E94DB216AE0A1
:1040400070E08E2D0E946824F801E050FD4FE08260
:1040500001E00C0D10E0F0907C0088EC80937C0077
:1040600064E170E080E090E00E94C71380E090E09F
:1040700020E030917A00306430937A0030917A00F9
:1040800036FDFCCF222331F0409178005091790029
:10409000840F951F2F5F233061F79695879531EB3D
:1040A000E32EE80EF0927C0081ED94E00E94DB218B
:1040B0008091DA028F3F39F46AE070E08E2D0E9421
:1040C00068248E2D1CC06E2D70E080E090E04AE0E8
:1040D0000E941B238DEC94E00E94DB216091DA02A8
:1040E00070E06E0D711D072E000C880B990B4AE0D5
:1040F0000E941B230E94D7218091DA028E0DF801C5
:10410000E050FD4F8083C394C394D090D702D394E2
:10411000D092D7020C2D10E07801F2E0EF1AF108EE
:10412000A70160E073E080EE92E00E94182A892BDC
:1041300021F48091D602D816E0F11092D702A7019F
:1041400060E073E080EE92E00E94252A80910501F4
:10415000886080930501A80160E073E087ED93E03B
:104160000E94252A1092D50381E08093D403C09247
:10417000D6038091CB039091CC039C0128603093AF
:10418000CC032093CB0382FF10924A040E94E418D0
:1041900081E195E00F900F900F900F90DF91CF91FC
:1041A0001F910F91FF90EF90DF90CF90BF900C94F4
:1041B000FC2188E095E00E94FC210F900F900F9069
:1041C0000F90DF91CF911F910F91FF90EF90DF90B3
:1041D000CF90BF900C947208682F8BE595E00C94FB
:1041E000B9122091CD029091CC02213208F04AC040
:1041F0008091A9028111FCCF32E03093A90231E015
:104200003093A8023FEF3093A7021092A6022093AA
:10421000A502ACEAB2E045E852E0FA013E2F341BB9
:10422000321718F43D913193F9CF10928402209106
:104230008402990F922B9093840290918302913083
:1042400061F410928302909184029093BB0090914C
:10425000BC0093FDF8CF95EC01C095EE9093BC00A7
:104260009091A9029230E1F39091A7029F3F79F0DB
:104270008091A702803241F08091A702803331F013
:1042800084E005C081E003C082E001C083E01092B9
:10429000AB021092CD021092AA020895CF92DF9243
:1042A000EF92FF92CF93DF93A82F803108F065C083
:1042B0006A017B0180ECC81A8DEFD80A81EDE80A0B
:1042C00083E3F80A81E9C81680EDD80683E0E806A2
:1042D000F10410F4426023C06A017B0181EAD81A1C
:1042E0008CEBE80A83E3F80A81ECC81687E2D8066B
:1042F00089E0E806F10490F06A017B0180EAC81ABF
:1043000081E9D80A86EDE80A83E3F80A81EEC81647
:1043100083E9D80684E0E806F10408F44160EA2F56
:10432000F0E0EF01CC0FDD1FCC0FDD1FCC5DDC4FCB
:104330004BAF5CAF6DAF7EAF2115310519F0922FF9
:10434000832F02C09FE380E0EE0FFF1FE156FC4F7A
:104350009083818381E090E002C0880F991FAA9525
:10436000E2F72091BF033091C003822B932B9093EF
:10437000C0038093BF0381E001C080E0DF91CF9153
:10438000FF90EF90DF90CF900895009769F0FC01C7
:1043900001900020E9F73197AF01481B590BBC0190
:1043A0008EEB94E00C94C50980E090E0089588ECD1
:1043B00091E00C94C5210F931F93CF93DF938C0151
:1043C000C0E0D0E0F801EC0FFD1F6491662371F0AE
:1043D000E091BE04F091BF040190F081E02D8EEBDE
:1043E00094E00995892B11F02196ECCFCE01DF9155
:1043F000CF911F910F910895CF93DF930E94DB21FE
:10440000EC010E94D7218C0F9D1FDF91CF91089561
:104410004F925F927F928F929F92AF92BF92CF9274
:10442000DF92EF92FF920F931F93CF93DF93CDB75D
:10443000DEB768970FB6F894DEBF0FBECDBF6C0134
:104440000EEA14E09801AC0194E0992E900EFA0166
:1044500080E090E06191D901A80FB91F6C93049698
:1044600080319105B9F74C5F5F4F2F5F3F4F92123C
:10447000EECFDE011196EEE9F4E07D0180E18E0FD2
:1044800091919D938E13FCCFC7010E9495068824BD
:1044900083948BE1782E8EEA94E0DC0130E02C915D
:1044A000E22FE295EF7040E1E49FF0011124E6591C
:1044B000FA4F2F70E20FF11DE491EC933F5F1496D9
:1044C000343069F701969812E8CF0E947A06AAEB79
:1044D000B4E04EEA54E0BE016B5E7F4FCE014196E0
:1044E0002C0120E030E05A01A20EB31EF5019081AC
:1044F000FB019193BF01892F880F97FD8725F2015A
:1045000080832C5F3F4FFFEF4F1A5F0A2031310548
:1045100051F77E89998997272F89B88C8A898227B4
:104520008B25382F3927FA013193AF016D893B89EB
:10453000FD013897862783278083AC8834968B2D9E
:104540008727862783278A2580832627A2269A25E0
:104550009D939412C0CFB701882D0E942906C701F0
:104560000E94950683949AE0891295CF8EEA94E092
:10457000DC0130E02C91E22FE295EF7040E1E49F06
:10458000F0011124E659FA4F2F70E20FF11DE4916A
:10459000EC933F5F1496343069F701969812E8CF98
:1045A0000E947A06B7018AE00E942906C7010E948C
:1045B0009506F60180E090E0D801A80FB91F2C9174
:1045C0002193049680319105B9F784E0C80ED11C7F
:1045D0000F5F1F4F9012EDCF68960FB6F894DEBFB5
:1045E0000FBECDBFDF91CF911F910F91FF90EF9044
:1045F000DF90CF90BF90AF909F908F907F905F9013
:104600004F900895FC0120E1215050F011F081817C
:1046100001C080E09081990F87FD91609193F4CF64
:10462000089580E1EEE8F4E0AEE9B4E001900D9287
:104630008A95E1F708958F929F92AF92BF920F9360
:104640001F93CF93DF93CDB7DEB7A1970FB6F89442
:10465000DEBF0FBECDBF19A2423008F44AE08E0182
:104660000F5D1F4F842E912CA12CB12CA50194011C
:104670000E94B228E62FB901CA0101501109EA309F
:1046800014F4E05D01C0E95CD801EC93232B242BEA
:10469000252B61F7C8010E94C521A1960FB6F89499
:1046A000DEBF0FBECDBFDF91CF911F910F91BF90A5
:1046B000AF909F908F900895CF93C82F80E00E9475
:1046C0001C0680E00E9415062EE434E0F9018E2FCE
:1046D000821B8C1740F41EBC00000DB407FEFDCFFA
:1046E0008EB58193F4CF81E0CF910C941C060E948B
:1046F0003204E0912003F0912103A0E2B3E030976F
:1047000081F023E0E733F20739F480913703909189
:1047100038038D939C9318C0DF010190F081E02D48
:10472000EECFE2E2F3E080819181009769F023E02F
:104730008733920739F4809137039091380391833E
:10474000808302C0FC01EFCF0C947504CF93DF93FC
:10475000EC010E9432040E947723D0933E03C09361
:104760003D031092380310923703E0912203F09139
:104770002303A2E2B3E0309729F0DF010190F0813A
:10478000E02DF9CF87E393E08D939C93DF91CF9158
:104790000C947504EF92FF921F93CF93DF93182F21
:1047A00080E00E941C0680E80E9415068EE4E82E38
:1047B00084E0F82EE7018C2F8E19811720F489915F
:1047C0000E941506F8CF81E0DF91CF911F91FF90F5
:1047D000EF900C941C06CF92DF92EF92FF92CF9352
:1047E000DF9300D000D0CDB7DEB77A0169837A833A
:1047F0008B839C830E9432040E94772369817A8193
:104800008B819C816093390370933A0380933B03BF
:1048100090933C03F0923E03E0923D0310923803E4
:1048200010923703E0912003F0912103A0E2B3E05E
:104830003097B9F0C280D380E480F580C61AD70AD9
:10484000E80AF90A1C141D041E041F042CF4F0933A
:104850003803E093370305C0DF010190F081E02DBC
:10486000E7CF87E393E08D939C930F900F900F9089
:104870000F90DF91CF91FF90EF90DF90CF900C944D
:104880007504CF92DF92EF92FF92CF93DF936B018B
:104890007C01E091BE04F091BF040190F081E02D15
:1048A0006DE28EEB94E00995EC0166277727CB014A
:1048B0006C197D098E099F094AE00E941B238C0F09
:1048C0009D1FDF91CF91FF90EF90DF90CF900895E3
:1048D000CF93DF93AB01672B61F4E091BE04F091BD
:1048E000BF040190F081E02D682F8EEB94E00995D4
:1048F00006C0682F70E080E090E00E941B23EC016E
:104900000E94D7218C0F9D1FDF91CF9108950F93A7
:104910001F93262F90E0FC01EA5AFA4F6491FC01A4
:10492000EE5BFA4FE491222311F0462F01C040E0E4
:10493000F0E0EE0FFF1FE85CFA4F8591949100E2E2
:1049400011EA27E030E00E94C62461157105810557
:104950009105B1F0DC01CB010196A11DB11D24E050
:10496000880F991FAA1FBB1F2A95D1F7BC01CD0143
:1049700033E096958795779567953A95D1F703C07B
:1049800060E070E0CB011F910F910895CF92DF920C
:10499000EF92FF920F931F93E82FF92F05C001505C
:1049A00011092109310961F1908196239417B9F316
:1049B00005C0015011092109310911F19081962397
:1049C0009413F7CFC12CD12CE12CF12C0AC08FEF1E
:1049D000C81AD80AE80AF80A0C151D052E053F0565
:1049E00079F080818623841791F36C2D7D2D8E2D97
:1049F0009F2D1F910F91FF90EF90DF90CF90089522
:104A000060E070E080E090E01F910F91FF90EF90E8
:104A1000DF90CF900895789484B5826084BD84B58A
:104A2000816084BD85B5826085BD85B5816085BDA9
:104A300080916E00816080936E0010928100809161
:104A400081008260809381008091810081608093E9
:104A50008100809180008160809380008091B1000E
:104A600084608093B1008091B00081608093B00039
:104A700080917A00846080937A0080917A008260CD
:104A800080937A0080917A008E7F80937A00809163
:104A90007A00806880937A001092C100E091CE0481
:104AA000F091CF0482E08083E091CA04F091CB04BE
:104AB0001082E091CC04F091CD0487E680831092BF
:104AC000D604E091D204F091D30486E08083E09193
:104AD000D004F091D104808180618083E091D00482
:104AE000F091D104808188608083E091D004F091BE
:104AF000D104808180688083E091D004F091D1045A
:104B000080818F7D808380E294E00E94DB2184B7E6
:104B100060E170E00E94682482E194E00E94FC2140
:104B200085E094E00E94DB218FEF93E00E94FC215E
:104B300062E082E00E94661387EF93E00E94DB212F
:104B400007E112E0CEE0EC2EF12CD1E2CD2E8AE08E
:104B5000D82ED00E85EF93E00E94DB21F701C092A2
:104B600057006491F80161938F0170E080E090E05C
:104B700040E10E941B23FFEFEF1AFF0AD012EACF99
:104B80000E94D7218DEE93E00E94DB21BEE0CB2E68
:104B9000B2E0DB2E760100E010E0BB24B394C80144
:104BA0000E947C284701F70180838BEE93E00E94EE
:104BB000DB21F70161917F0170E080E090E040E14E
:104BC0000E941B23F40180818F3F09F0B12C0F5FFD
:104BD0001F4F0830110519F78AEE93E00E94FC215F
:104BE000BB2041F18CEC93E00E94FC2181EB93E02F
:104BF0000E94DB2100E010E0F801E95EFD4F6281D8
:104C00007601F60161936F01C8010E948E078FEA59
:104C100093E00E94DB21F701608170E080E090E08A
:104C200040E10E941B230F5F1F4F0830110521F741
:104C30000E94D72187EA93E00E94DB21E6E0EE2E76
:104C4000E2E0FE2E8701F8E0CF2ED12CBB24B394F6
:104C5000A8E0AA2EAE0CC6010E947C284801F801EB
:104C6000808385EA93E00E94DB21F80161918F0146
:104C700070E080E090E040E10E941B23F40180811D
:104C80008F3F09F0B12CFFEFCF1ADF0AA012E3CF5C
:104C90000E94D721BB2041F18DE893E00E94FC21C6
:104CA00082E793E00E94DB2108E010E068EF600FEC
:104CB0006701F70161937F01C8010E948E0780E7B9
:104CC00093E00E94DB21F601608170E080E090E0DB
:104CD00040E10E941B230F5F1F4F0031110531F788
:104CE0008FE693E00E94FC2187E693E00E94DB219F
:104CF0005EE8E52E54E0F52E870160E1C62ED12C4A
:104D0000BB24B39470E1A72EAE0CC6010E947C2890
:104D10004801F801808385E693E00E94DB21F801D9
:104D200061918F0170E080E090E040E10E941B23E0
:104D3000F40180818F3F09F0B12CFFEFCF1ADF0A19
:104D4000A012E3CF84E693E00E94FC21BB2041F156
:104D50008CE493E00E94FC2181E393E00E94DB213C
:104D600000E110E060EF600F6701F70161937F01E0
:104D7000C8010E948E078FE293E00E94DB21F601BA
:104D8000608170E080E090E040E10E941B230F5FB3
:104D90001F4F0032110531F78EE293E00E94FC2193
:104DA00086E293E00E94DB2108ED12E0780130E218
:104DB000C32ED12CAA24A39448E0B42EB00EC60171
:104DC0000E947C284701F701808384E293E00E94DF
:104DD000DB21F70161917F0170E080E090E040E12C
:104DE0000E941B23F40180818F3F09F0A12CFFEF6B
:104DF000CF1ADF0ABE10E3CF0E94D721AA2041F1CB
:104E000086E093E00E94FC218BEE92E00E94DB2181
:104E100020E2E22EF12C6801F80111928F0160E08E
:104E2000C7010E948E0789EE92E00E94DB21F60105
:104E3000608170E080E090E040E10E941B23FFEF82
:104E4000EF1AFF0AB012E7CF88EE92E00E94FC2131
:104E500082E0809305011092D7028091DC0280935A
:104E6000D602109220031092210310922203109276
:104E7000230361E08AE00E94661361E083E00E9400
:104E8000661360E088E00E94661360E089E00E949B
:104E900066131FB7F89480911602811127C0ECE4C5
:104EA000F5E09491E0E6F5E08491E92FF0E0EE0F73
:104EB000FF1FE252FD4FA591B491EC91E82321F43C
:104EC00061E08AE00E94361361E08AE00E94661386
:104ED0008CB580618CBD8CB580648CBD61E08DE04B
:104EE0000E94661361E08BE00E94661380911602B7
:104EF0008F5F809316021FBF0E94320461E083E03F
:104F00000E94661360E083E00E9436130E945E04F4
:104F1000625C7F4F8F4F9F4F0E94E00560E083E00F
:104F20000E9466130E945E04685C7E4F8F4F9F4F05
:104F30000E94E00580E00E94DE1682E40E94B31623
:104F4000823131F061EB72E089E391E00E94390433
:104F500082E00E94EA1681E00E94B31687708530D5
:104F6000D1F707EF11E088E0C82ED12C8CE20E9427
:104F7000B3168170F82E8CE20E94B3162F2D30E00C
:104F80008170C82F80E0D82F2C173D0779F3F801E6
:104F90008081880FF82AF082F1E0CF1AD10831F72A
:104FA0000F5F1F4F82E006301807E9F680E180931B
:104FB000F60180E00E94DE160E94750480E490E015
:104FC0009093CC038093CB030E94A6188FE892E0C5
:104FD0009093D3038093D2030E943204C0912203A2
:104FE000D0912303209739F08881998190932303EE
:104FF000809322031FC0E0912003F091210330979A
:10500000C9F0C280D380E480F5800E945E04C61A95
:10501000D70AE80AF90A1C141D041E041F0454F0E0
:10502000C0912003D091210388819981909321031D
:10503000809320030E947504209721F0EE81FF8168
:10504000CE0109958091050181FD05C083FD12C047
:105050000E94431E0FC088E294E00E94FC2160ED94
:1050600077E080E090E00E94C713809105018D7F7A
:10507000809305010E940112AFCFEEEBF4E01382A2
:10508000128288EE93E0A0E0B0E084839583A6834B
:10509000B78320E131E03183208325EC30E0358790
:1050A000248724EC30E03787268720EC30E0318BF2
:1050B000208B21EC30E0338B228B22EC30E0358BDF
:1050C000248B26EC30E0378B268B118E128E138EBC
:1050D000148EEBE5F5E01382128284839583A68318
:1050E000B78382E291E091838083E7E6F5E080E593
:1050F000808381E081830895F999FECF92BD81BDBF
:10510000F89A992780B50895262FF999FECF1FBAEE
:1051100092BD81BD20BD0FB6F894FA9AF99A0FBEE0
:1051200001960895991B79E004C0991F961708F01D
:10513000961B881F7A95C9F78095089597FB072ECF
:1051400016F4009407D077FD09D00E94F62907FCD9
:1051500005D03EF4909581959F4F08957095619587
:105160007F4F0895A1E21A2EAA1BBB1BFD010DC0A3
:10517000AA1FBB1FEE1FFF1FA217B307E407F50707
:1051800020F0A21BB30BE40BF50B661F771F881FE3
:10519000991F1A9469F760957095809590959B0179
:1051A000AC01BD01CF010895052E97FB1EF40094BC
:1051B0000E94EB2857FD07D00E94B22807FC03D0BD
:1051C0004EF40C94EB2850954095309521953F4F27
:1051D0004F4F5F4F089590958095709561957F4FE3
:1051E0008F4F9F4F0895EE0FFF1F0590F491E02D14
:1051F0000994A29FB001B39FC001A39F700D811DB0
:105200001124911DB29F700D811D1124911D0895CF
:105210000E94F928B7FF0895821B930B08950E94FE
:10522000F928A59F900DB49F900DA49F800D911D0E
:105230001124089597FB57FF0C942A299F938F936D
:105240000E942A296E1B7F0BAF91BF918A0B9B0B8B
:105250000895E894DF93CF93FC01DB010E94F928C5
:105260007F936F93E9019A01AC01BF93AF933F9392
:105270002F93DF010E94F92826F46C1B7D0B820B13
:10528000930B9E01EB01FC010E940A2AAF91BF9192
:105290002F913F910E940A2ABE01CF01F9012F915F
:1052A0003F91CF91DF910895689401C0E8948F9267
:1052B0009F92CF93DF930E946229DF91CF919F90BD
:1052C0008F90089588249924F401E401B0E49F9319
:1052D000AA279A158B049C04ED05FE05CF05D0077F
:1052E000A10798F4AD2FDC2FCF2FFE2FE92D982C9E
:1052F000892E982F872F762F652F542F432F322FEB
:105300002227B85031F7BF9127C01B2EBF91BB2772
:10531000220F331F441F551F661F771F881F991FB9
:10532000881C991CEE1FFF1FCC1FDD1FAA1FBB1F6F
:105330008A149B04EC05FD05CE05DF05A007B10727
:1053400048F08A189B08EC09FD09CE09DF09A00B7B
:10535000B10B21601A94E1F62EF49401AF01BE0165
:10536000CD01000C08950F93083090F0982F872FEF
:10537000762F652F542F432F322F22270850F4CF3A
:10538000220F331F441F551F661F771F881F991F49
:105390000A95B2F70F91089597FB10F8169400083C
:1053A0000F93083098F00850232F342F452F562F95
:1053B000672F782F892F902DF4CF05949795879597
:1053C0007795679557954795379527950A95AAF745
:1053D0000F9108950024A7FD00942A173005400579
:1053E000500560057005800590050895AA1BBB1B3C
:1053F00051E107C0AA1FBB1FA617B70710F0A61BD5
:10540000B70B881F991F5A95A9F780959095BC01F5
:10541000CD0108950E94F928460F571FC81FD91FB4
:1054200008F43196089581E090E0F8940C942E2AC7
:10543000FB01DC0104C08D910190801921F44150E1
:105440005040C8F7881B990B0895FB01DC0102C08E
:1054500001900D9241505040D8F70895F894FFCF35
:105460000130123012010AFF030809FF000000009A
:10547000390AC509F009800A210AFF09130A000048
:105480000000B9128912E9126312811272126412B9
:105490004641494C55524520002F686F6D652F6875
:1054A00061636B626172642F41726475696E6F2F04
:1054B0006C69627261726965732F49424D5F4C4D30
:1054C00049435F6672616D65776F726B2F737263AC
:1054D0002F6C6D69632F726164696F2E63002F6892
:1054E0006F6D652F6861636B626172642F417264D6
:1054F00075696E6F2F6C69627261726965732F498D
:10550000424D5F4C4D49435F6672616D65776F72C6
:105510006B2F7372632F6C6D69632F6C6D69632ED3
:0C55200063004442473A20000D0A0000DE
:00000001FF
